{
  "_format": "hh-sol-artifact-1",
  "contractName": "Voting",
  "sourceName": "contracts/Voting.sol",
  "abi": [
    {
      "inputs": [],
      "stateMutability": "nonpayable",
      "type": "constructor"
    },
    {
      "anonymous": false,
      "inputs": [
        {
          "indexed": true,
          "internalType": "uint256",
          "name": "cid",
          "type": "uint256"
        },
        {
          "indexed": false,
          "internalType": "string",
          "name": "name",
          "type": "string"
        }
      ],
      "name": "CandidateAdded",
      "type": "event"
    },
    {
      "anonymous": false,
      "inputs": [
        {
          "indexed": true,
          "internalType": "uint256",
          "name": "cid",
          "type": "uint256"
        }
      ],
      "name": "CandidateRemoved",
      "type": "event"
    },
    {
      "anonymous": false,
      "inputs": [
        {
          "indexed": true,
          "internalType": "uint256",
          "name": "cid",
          "type": "uint256"
        },
        {
          "indexed": true,
          "internalType": "bytes32",
          "name": "voterHash",
          "type": "bytes32"
        }
      ],
      "name": "VoteCast",
      "type": "event"
    },
    {
      "anonymous": false,
      "inputs": [],
      "name": "VotingEnded",
      "type": "event"
    },
    {
      "anonymous": false,
      "inputs": [],
      "name": "VotingStarted",
      "type": "event"
    },
    {
      "inputs": [
        {
          "internalType": "string",
          "name": "_name",
          "type": "string"
        }
      ],
      "name": "addCandidate",
      "outputs": [],
      "stateMutability": "nonpayable",
      "type": "function"
    },
    {
      "inputs": [],
      "name": "admin",
      "outputs": [
        {
          "internalType": "address",
          "name": "",
          "type": "address"
        }
      ],
      "stateMutability": "view",
      "type": "function"
    },
    {
      "inputs": [],
      "name": "candidatecount",
      "outputs": [
        {
          "internalType": "uint256",
          "name": "",
          "type": "uint256"
        }
      ],
      "stateMutability": "view",
      "type": "function"
    },
    {
      "inputs": [],
      "name": "endVoting",
      "outputs": [],
      "stateMutability": "nonpayable",
      "type": "function"
    },
    {
      "inputs": [],
      "name": "getCandidateCount",
      "outputs": [
        {
          "internalType": "uint256",
          "name": "",
          "type": "uint256"
        }
      ],
      "stateMutability": "view",
      "type": "function"
    },
    {
      "inputs": [
        {
          "internalType": "bytes32",
          "name": "_voterHash",
          "type": "bytes32"
        }
      ],
      "name": "hasVoted",
      "outputs": [
        {
          "internalType": "bool",
          "name": "",
          "type": "bool"
        }
      ],
      "stateMutability": "view",
      "type": "function"
    },
    {
      "inputs": [
        {
          "internalType": "uint256",
          "name": "_cid",
          "type": "uint256"
        }
      ],
      "name": "removeCandidate",
      "outputs": [],
      "stateMutability": "nonpayable",
      "type": "function"
    },
    {
      "inputs": [],
      "name": "startVoting",
      "outputs": [],
      "stateMutability": "nonpayable",
      "type": "function"
    },
    {
      "inputs": [
        {
          "internalType": "uint256",
          "name": "_cid",
          "type": "uint256"
        }
      ],
      "name": "viewCandidate",
      "outputs": [
        {
          "internalType": "string",
          "name": "",
          "type": "string"
        },
        {
          "internalType": "uint256",
          "name": "",
          "type": "uint256"
        },
        {
          "internalType": "bool",
          "name": "",
          "type": "bool"
        }
      ],
      "stateMutability": "view",
      "type": "function"
    },
    {
      "inputs": [
        {
          "internalType": "uint256",
          "name": "_cid",
          "type": "uint256"
        },
        {
          "internalType": "bytes32",
          "name": "_voterHash",
          "type": "bytes32"
        }
      ],
      "name": "vote",
      "outputs": [],
      "stateMutability": "nonpayable",
      "type": "function"
    },
    {
      "inputs": [],
      "name": "votingactive",
      "outputs": [
        {
          "internalType": "bool",
          "name": "",
          "type": "bool"
        }
      ],
      "stateMutability": "view",
      "type": "function"
    }
  ],
  "bytecode": "0x608060405260008060146101000a81548160ff021916908315150217905550600060025534801561002f57600080fd5b50336000806101000a81548173ffffffffffffffffffffffffffffffffffffffff021916908373ffffffffffffffffffffffffffffffffffffffff1602179055506118618061007f6000396000f3fe608060405234801561001057600080fd5b50600436106100a95760003560e01c8063387bfd1d11610071578063387bfd1d14610154578063462e91ec1461017257806368bb8bb61461018e578063c3403ddf146101aa578063c8b94d69146101b4578063f851a440146101d2576100a9565b806309e9d7e2146100ae5780631b4613cb146100ca5780631ec6b60a146100fa578063254a23551461010457806330a5634714610136575b600080fd5b6100c860048036038101906100c39190610c32565b6101f0565b005b6100e460048036038101906100df9190610c95565b6103e3565b6040516100f19190610cdd565b60405180910390f35b61010261040d565b005b61011e60048036038101906101199190610c32565b610534565b60405161012d93929190610d97565b60405180910390f35b61013e61068c565b60405161014b9190610dd5565b60405180910390f35b61015c610696565b6040516101699190610cdd565b60405180910390f35b61018c60048036038101906101879190610f25565b6106a9565b005b6101a860048036038101906101a39190610f6e565b6108a9565b005b6101b2610a99565b005b6101bc610bbe565b6040516101c99190610dd5565b60405180910390f35b6101da610bc4565b6040516101e79190610fef565b60405180910390f35b60008054906101000a900473ffffffffffffffffffffffffffffffffffffffff1673ffffffffffffffffffffffffffffffffffffffff163373ffffffffffffffffffffffffffffffffffffffff161461027e576040517f08c379a00000000000000000000000000000000000000000000000000000000081526004016102759061107c565b60405180910390fd5b8060008111801561029157506002548111155b6102d0576040517f08c379a00000000000000000000000000000000000000000000000000000000081526004016102c7906110e8565b60405180910390fd5b600060149054906101000a900460ff1615610320576040517f08c379a00000000000000000000000000000000000000000000000000000000081526004016103179061117a565b60405180910390fd5b6001600083815260200190815260200160002060030160009054906101000a900460ff16610383576040517f08c379a000000000000000000000000000000000000000000000000000000000815260040161037a906111e6565b60405180910390fd5b60006001600084815260200190815260200160002060030160006101000a81548160ff021916908315150217905550817f294c5a9bc8a39e6e06502bc8da429980f6c7b0990d75b682c12cb8705e3ace8560405160405180910390a25050565b60006003600083815260200190815260200160002060009054906101000a900460ff169050919050565b60008054906101000a900473ffffffffffffffffffffffffffffffffffffffff1673ffffffffffffffffffffffffffffffffffffffff163373ffffffffffffffffffffffffffffffffffffffff161461049b576040517f08c379a00000000000000000000000000000000000000000000000000000000081526004016104929061107c565b60405180910390fd5b600060149054906101000a900460ff16156104eb576040517f08c379a00000000000000000000000000000000000000000000000000000000081526004016104e290611252565b60405180910390fd5b6001600060146101000a81548160ff0219169083151502179055507f877e2548498f42b7975a186b94ef1d32c86d420b7b806dd2be2bea293b89590460405160405180910390a1565b60606000808360008111801561054c57506002548111155b61058b576040517f08c379a0000000000000000000000000000000000000000000000000000000008152600401610582906110e8565b60405180910390fd5b600060016000878152602001908152602001600020604051806080016040529081600082015481526020016001820180546105c5906112a1565b80601f01602080910402602001604051908101604052809291908181526020018280546105f1906112a1565b801561063e5780601f106106135761010080835404028352916020019161063e565b820191906000526020600020905b81548152906001019060200180831161062157829003601f168201915b50505050508152602001600282015481526020016003820160009054906101000a900460ff161515151581525050905080602001518160400151826060015194509450945050509193909250565b6000600254905090565b600060149054906101000a900460ff1681565b60008054906101000a900473ffffffffffffffffffffffffffffffffffffffff1673ffffffffffffffffffffffffffffffffffffffff163373ffffffffffffffffffffffffffffffffffffffff1614610737576040517f08c379a000000000000000000000000000000000000000000000000000000000815260040161072e9061107c565b60405180910390fd5b600060149054906101000a900460ff1615610787576040517f08c379a000000000000000000000000000000000000000000000000000000000815260040161077e90611344565b60405180910390fd5b60008151116107cb576040517f08c379a00000000000000000000000000000000000000000000000000000000081526004016107c2906113b0565b60405180910390fd5b600260008154809291906107de906113ff565b919050555060405180608001604052806002548152602001828152602001600081526020016001151581525060016000600254815260200190815260200160002060008201518160000155602082015181600101908161083e91906115f3565b506040820151816002015560608201518160030160006101000a81548160ff0219169083151502179055509050506002547fe83b2a43e7e82d975c8a0a6d2f045153c869e111136a34d1889ab7b598e396a38260405161089e91906116c5565b60405180910390a250565b816000811180156108bc57506002548111155b6108fb576040517f08c379a00000000000000000000000000000000000000000000000000000000081526004016108f2906110e8565b60405180910390fd5b600060149054906101000a900460ff1661094a576040517f08c379a000000000000000000000000000000000000000000000000000000000815260040161094190611733565b60405180910390fd5b6003600083815260200190815260200160002060009054906101000a900460ff16156109ab576040517f08c379a00000000000000000000000000000000000000000000000000000000081526004016109a29061179f565b60405180910390fd5b6001600084815260200190815260200160002060030160009054906101000a900460ff16610a0e576040517f08c379a0000000000000000000000000000000000000000000000000000000008152600401610a059061180b565b60405180910390fd5b600160008481526020019081526020016000206002016000815480929190610a35906113ff565b919050555060016003600084815260200190815260200160002060006101000a81548160ff02191690831515021790555081837f360a953ca6204e950fa88a5b660c09f12df914124ec5270703b41dcc58b5674860405160405180910390a3505050565b60008054906101000a900473ffffffffffffffffffffffffffffffffffffffff1673ffffffffffffffffffffffffffffffffffffffff163373ffffffffffffffffffffffffffffffffffffffff1614610b27576040517f08c379a0000000000000000000000000000000000000000000000000000000008152600401610b1e9061107c565b60405180910390fd5b600060149054906101000a900460ff16610b76576040517f08c379a0000000000000000000000000000000000000000000000000000000008152600401610b6d90611733565b60405180910390fd5b60008060146101000a81548160ff0219169083151502179055507f7a19ed057db79e3c2fa0b97a54b43bef4fce74b31bb6c01af514b9a18a7f70ab60405160405180910390a1565b60025481565b60008054906101000a900473ffffffffffffffffffffffffffffffffffffffff1681565b6000604051905090565b600080fd5b600080fd5b6000819050919050565b610c0f81610bfc565b8114610c1a57600080fd5b50565b600081359050610c2c81610c06565b92915050565b600060208284031215610c4857610c47610bf2565b5b6000610c5684828501610c1d565b91505092915050565b6000819050919050565b610c7281610c5f565b8114610c7d57600080fd5b50565b600081359050610c8f81610c69565b92915050565b600060208284031215610cab57610caa610bf2565b5b6000610cb984828501610c80565b91505092915050565b60008115159050919050565b610cd781610cc2565b82525050565b6000602082019050610cf26000830184610cce565b92915050565b600081519050919050565b600082825260208201905092915050565b60005b83811015610d32578082015181840152602081019050610d17565b60008484015250505050565b6000601f19601f8301169050919050565b6000610d5a82610cf8565b610d648185610d03565b9350610d74818560208601610d14565b610d7d81610d3e565b840191505092915050565b610d9181610bfc565b82525050565b60006060820190508181036000830152610db18186610d4f565b9050610dc06020830185610d88565b610dcd6040830184610cce565b949350505050565b6000602082019050610dea6000830184610d88565b92915050565b600080fd5b600080fd5b7f4e487b7100000000000000000000000000000000000000000000000000000000600052604160045260246000fd5b610e3282610d3e565b810181811067ffffffffffffffff82111715610e5157610e50610dfa565b5b80604052505050565b6000610e64610be8565b9050610e708282610e29565b919050565b600067ffffffffffffffff821115610e9057610e8f610dfa565b5b610e9982610d3e565b9050602081019050919050565b82818337600083830152505050565b6000610ec8610ec384610e75565b610e5a565b905082815260208101848484011115610ee457610ee3610df5565b5b610eef848285610ea6565b509392505050565b600082601f830112610f0c57610f0b610df0565b5b8135610f1c848260208601610eb5565b91505092915050565b600060208284031215610f3b57610f3a610bf2565b5b600082013567ffffffffffffffff811115610f5957610f58610bf7565b5b610f6584828501610ef7565b91505092915050565b60008060408385031215610f8557610f84610bf2565b5b6000610f9385828601610c1d565b9250506020610fa485828601610c80565b9150509250929050565b600073ffffffffffffffffffffffffffffffffffffffff82169050919050565b6000610fd982610fae565b9050919050565b610fe981610fce565b82525050565b60006020820190506110046000830184610fe0565b92915050565b7f4f6e6c792061646d696e2063616e20706572666f726d2074686973206163746960008201527f6f6e000000000000000000000000000000000000000000000000000000000000602082015250565b6000611066602283610d03565b91506110718261100a565b604082019050919050565b6000602082019050818103600083015261109581611059565b9050919050565b7f43616e646964617465206e6f7420666f756e6400000000000000000000000000600082015250565b60006110d2601383610d03565b91506110dd8261109c565b602082019050919050565b60006020820190508181036000830152611101816110c5565b9050919050565b7f43616e6e6f742072656d6f76652063616e64696461746573207768696c65207660008201527f6f74696e67206973206163746976650000000000000000000000000000000000602082015250565b6000611164602f83610d03565b915061116f82611108565b604082019050919050565b6000602082019050818103600083015261119381611157565b9050919050565b7f43616e64696461746520697320616c726561647920696e616374697665000000600082015250565b60006111d0601d83610d03565b91506111db8261119a565b602082019050919050565b600060208201905081810360008301526111ff816111c3565b9050919050565b7f566f74696e6720697320616c7265616479206163746976650000000000000000600082015250565b600061123c601883610d03565b915061124782611206565b602082019050919050565b6000602082019050818103600083015261126b8161122f565b9050919050565b7f4e487b7100000000000000000000000000000000000000000000000000000000600052602260045260246000fd5b600060028204905060018216806112b957607f821691505b6020821081036112cc576112cb611272565b5b50919050565b7f43616e6e6f74206164642063616e64696461746573207768696c6520766f746960008201527f6e67206973206163746976650000000000000000000000000000000000000000602082015250565b600061132e602c83610d03565b9150611339826112d2565b604082019050919050565b6000602082019050818103600083015261135d81611321565b9050919050565b7f43616e646964617465206e616d652063616e6e6f7420626520656d7074790000600082015250565b600061139a601e83610d03565b91506113a582611364565b602082019050919050565b600060208201905081810360008301526113c98161138d565b9050919050565b7f4e487b7100000000000000000000000000000000000000000000000000000000600052601160045260246000fd5b600061140a82610bfc565b91507fffffffffffffffffffffffffffffffffffffffffffffffffffffffffffffffff820361143c5761143b6113d0565b5b600182019050919050565b60008190508160005260206000209050919050565b60006020601f8301049050919050565b600082821b905092915050565b6000600883026114a97fffffffffffffffffffffffffffffffffffffffffffffffffffffffffffffffff8261146c565b6114b3868361146c565b95508019841693508086168417925050509392505050565b6000819050919050565b60006114f06114eb6114e684610bfc565b6114cb565b610bfc565b9050919050565b6000819050919050565b61150a836114d5565b61151e611516826114f7565b848454611479565b825550505050565b600090565b611533611526565b61153e818484611501565b505050565b5b818110156115625761155760008261152b565b600181019050611544565b5050565b601f8211156115a75761157881611447565b6115818461145c565b81016020851015611590578190505b6115a461159c8561145c565b830182611543565b50505b505050565b600082821c905092915050565b60006115ca600019846008026115ac565b1980831691505092915050565b60006115e383836115b9565b9150826002028217905092915050565b6115fc82610cf8565b67ffffffffffffffff81111561161557611614610dfa565b5b61161f82546112a1565b61162a828285611566565b600060209050601f83116001811461165d576000841561164b578287015190505b61165585826115d7565b8655506116bd565b601f19841661166b86611447565b60005b828110156116935784890151825560018201915060208501945060208101905061166e565b868310156116b057848901516116ac601f8916826115b9565b8355505b6001600288020188555050505b505050505050565b600060208201905081810360008301526116df8184610d4f565b905092915050565b7f566f74696e67206973206e6f7420616374697665000000000000000000000000600082015250565b600061171d601483610d03565b9150611728826116e7565b602082019050919050565b6000602082019050818103600083015261174c81611710565b9050919050565b7f5468697320766f7465722068617320616c726561647920766f74656400000000600082015250565b6000611789601c83610d03565b915061179482611753565b602082019050919050565b600060208201905081810360008301526117b88161177c565b9050919050565b7f43616e646964617465206973206e6f7420616374697665000000000000000000600082015250565b60006117f5601783610d03565b9150611800826117bf565b602082019050919050565b60006020820190508181036000830152611824816117e8565b905091905056fea264697066735822122029896d7b2fdda958fda3100333bf840f4e2147ca063b646865b1a61bb862344364736f6c63430008140033",
  "linkReferences": {},
  "deployedLinkReferences": {}
}